{
  "_format": "hh-sol-artifact-1",
  "contractName": "PriceAlert",
  "sourceName": "contracts/PriceAlert.sol",
  "abi": [
    {
      "inputs": [],
      "stateMutability": "nonpayable",
      "type": "constructor"
    },
    {
      "anonymous": false,
      "inputs": [
        {
          "indexed": true,
          "internalType": "address",
          "name": "user",
          "type": "address"
        },
        {
          "indexed": false,
          "internalType": "string",
          "name": "asset",
          "type": "string"
        },
        {
          "indexed": false,
          "internalType": "int256",
          "name": "price",
          "type": "int256"
        },
        {
          "indexed": false,
          "internalType": "string",
          "name": "userMessage",
          "type": "string"
        },
        {
          "indexed": false,
          "internalType": "bool",
          "name": "triggerAbove",
          "type": "bool"
        }
      ],
      "name": "AlertTriggered",
      "type": "event"
    },
    {
      "inputs": [
        {
          "internalType": "string",
          "name": "asset",
          "type": "string"
        },
        {
          "internalType": "uint256",
          "name": "threshold",
          "type": "uint256"
        },
        {
          "internalType": "string",
          "name": "userMessage",
          "type": "string"
        },
        {
          "internalType": "bool",
          "name": "triggerAbove",
          "type": "bool"
        }
      ],
      "name": "checkPrice",
      "outputs": [],
      "stateMutability": "nonpayable",
      "type": "function"
    },
    {
      "inputs": [
        {
          "internalType": "string",
          "name": "",
          "type": "string"
        }
      ],
      "name": "priceFeeds",
      "outputs": [
        {
          "internalType": "contract AggregatorV3Interface",
          "name": "",
          "type": "address"
        }
      ],
      "stateMutability": "view",
      "type": "function"
    },
    {
      "inputs": [
        {
          "internalType": "string",
          "name": "asset",
          "type": "string"
        }
      ],
      "name": "viewPrices",
      "outputs": [
        {
          "internalType": "int256",
          "name": "",
          "type": "int256"
        }
      ],
      "stateMutability": "view",
      "type": "function"
    }
  ],
  "bytecode": "0x608060405234801561001057600080fd5b50731b44f3514812d835eb1bdb0acb33d3fa3351ee436000604051610034906101ba565b908152602001604051809103902060006101000a81548173ffffffffffffffffffffffffffffffffffffffff021916908373ffffffffffffffffffffffffffffffffffffffff16021790555073694aa1769357215de4fac081bf1f309adc32530660006040516100a39061021b565b908152602001604051809103902060006101000a81548173ffffffffffffffffffffffffffffffffffffffff021916908373ffffffffffffffffffffffffffffffffffffffff16021790555073c59e3633baac79493d908e63626716e204a45edf60006040516101129061027c565b908152602001604051809103902060006101000a81548173ffffffffffffffffffffffffffffffffffffffff021916908373ffffffffffffffffffffffffffffffffffffffff160217905550610291565b600081905092915050565b7f4254432f55534400000000000000000000000000000000000000000000000000600082015250565b60006101a4600783610163565b91506101af8261016e565b600782019050919050565b60006101c582610197565b9150819050919050565b7f4554482f55534400000000000000000000000000000000000000000000000000600082015250565b6000610205600783610163565b9150610210826101cf565b600782019050919050565b6000610226826101f8565b9150819050919050565b7f4c494e4b2f555344000000000000000000000000000000000000000000000000600082015250565b6000610266600883610163565b915061027182610230565b600882019050919050565b600061028782610259565b9150819050919050565b610a93806102a06000396000f3fe608060405234801561001057600080fd5b50600436106100415760003560e01c806381b6ab6014610046578063a395a77214610076578063cb8ae86c14610092575b600080fd5b610060600480360381019061005b919061059b565b6100c2565b60405161006d91906105fd565b60405180910390f35b610090600480360381019061008b9190610686565b6101f6565b005b6100ac60048036038101906100a7919061059b565b6103f8565b6040516100b991906107a4565b60405180910390f35b6000806000836040516100d59190610830565b908152602001604051809103902060009054906101000a900473ffffffffffffffffffffffffffffffffffffffff169050600073ffffffffffffffffffffffffffffffffffffffff168173ffffffffffffffffffffffffffffffffffffffff1603610175576040517f08c379a000000000000000000000000000000000000000000000000000000000815260040161016c906108a4565b60405180910390fd5b60008173ffffffffffffffffffffffffffffffffffffffff1663feaf968c6040518163ffffffff1660e01b815260040160a060405180830381865afa1580156101c2573d6000803e3d6000fd5b505050506040513d601f19601f820116820180604052508101906101e69190610947565b5050509150508092505050919050565b600080856040516102079190610830565b908152602001604051809103902060009054906101000a900473ffffffffffffffffffffffffffffffffffffffff169050600073ffffffffffffffffffffffffffffffffffffffff168173ffffffffffffffffffffffffffffffffffffffff16036102a7576040517f08c379a000000000000000000000000000000000000000000000000000000000815260040161029e906108a4565b60405180910390fd5b60008173ffffffffffffffffffffffffffffffffffffffff1663feaf968c6040518163ffffffff1660e01b815260040160a060405180830381865afa1580156102f4573d6000803e3d6000fd5b505050506040513d601f19601f820116820180604052508101906103189190610947565b5050509150508215801561032b57508481125b15610389573373ffffffffffffffffffffffffffffffffffffffff167f3e6903e118daca8799d2962c8c7fa7d30c553859e97152b195e72bfc5f6e9c548783878760405161037c9493929190610a0a565b60405180910390a26103f0565b82801561039557508481135b156103ef573373ffffffffffffffffffffffffffffffffffffffff167f3e6903e118daca8799d2962c8c7fa7d30c553859e97152b195e72bfc5f6e9c54878387876040516103e69493929190610a0a565b60405180910390a25b5b505050505050565b6000818051602081018201805184825260208301602085012081835280955050505050506000915054906101000a900473ffffffffffffffffffffffffffffffffffffffff1681565b6000604051905090565b600080fd5b600080fd5b600080fd5b600080fd5b6000601f19601f8301169050919050565b7f4e487b7100000000000000000000000000000000000000000000000000000000600052604160045260246000fd5b6104a88261045f565b810181811067ffffffffffffffff821117156104c7576104c6610470565b5b80604052505050565b60006104da610441565b90506104e6828261049f565b919050565b600067ffffffffffffffff82111561050657610505610470565b5b61050f8261045f565b9050602081019050919050565b82818337600083830152505050565b600061053e610539846104eb565b6104d0565b90508281526020810184848401111561055a5761055961045a565b5b61056584828561051c565b509392505050565b600082601f83011261058257610581610455565b5b813561059284826020860161052b565b91505092915050565b6000602082840312156105b1576105b061044b565b5b600082013567ffffffffffffffff8111156105cf576105ce610450565b5b6105db8482850161056d565b91505092915050565b6000819050919050565b6105f7816105e4565b82525050565b600060208201905061061260008301846105ee565b92915050565b6000819050919050565b61062b81610618565b811461063657600080fd5b50565b60008135905061064881610622565b92915050565b60008115159050919050565b6106638161064e565b811461066e57600080fd5b50565b6000813590506106808161065a565b92915050565b600080600080608085870312156106a05761069f61044b565b5b600085013567ffffffffffffffff8111156106be576106bd610450565b5b6106ca8782880161056d565b94505060206106db87828801610639565b935050604085013567ffffffffffffffff8111156106fc576106fb610450565b5b6107088782880161056d565b925050606061071987828801610671565b91505092959194509250565b600073ffffffffffffffffffffffffffffffffffffffff82169050919050565b6000819050919050565b600061076a61076561076084610725565b610745565b610725565b9050919050565b600061077c8261074f565b9050919050565b600061078e82610771565b9050919050565b61079e81610783565b82525050565b60006020820190506107b96000830184610795565b92915050565b600081519050919050565b600081905092915050565b60005b838110156107f35780820151818401526020810190506107d8565b60008484015250505050565b600061080a826107bf565b61081481856107ca565b93506108248185602086016107d5565b80840191505092915050565b600061083c82846107ff565b915081905092915050565b600082825260208201905092915050565b7f496e76616c696420617373657400000000000000000000000000000000000000600082015250565b600061088e600d83610847565b915061089982610858565b602082019050919050565b600060208201905081810360008301526108bd81610881565b9050919050565b600069ffffffffffffffffffff82169050919050565b6108e3816108c4565b81146108ee57600080fd5b50565b600081519050610900816108da565b92915050565b61090f816105e4565b811461091a57600080fd5b50565b60008151905061092c81610906565b92915050565b60008151905061094181610622565b92915050565b600080600080600060a086880312156109635761096261044b565b5b6000610971888289016108f1565b95505060206109828882890161091d565b945050604061099388828901610932565b93505060606109a488828901610932565b92505060806109b5888289016108f1565b9150509295509295909350565b60006109cd826107bf565b6109d78185610847565b93506109e78185602086016107d5565b6109f08161045f565b840191505092915050565b610a048161064e565b82525050565b60006080820190508181036000830152610a2481876109c2565b9050610a3360208301866105ee565b8181036040830152610a4581856109c2565b9050610a5460608301846109fb565b9594505050505056fea2646970667358221220cccec60fbc224cdaaddc529eadbf24ba0ad6cc69ee59c8c57cc1b0042aa8105c64736f6c634300081c0033",
  "linkReferences": {},
  "deployedLinkReferences": {}
}